:100000000C943D010C94D3120C94AC120C94650129
:100010000C9465010C9465010C9465010C946501C8
:100020000C9465010C9465010C9465010C946501B8
:100030000C9465010C9465010C9465010C946501A8
:100040000C9462120C9465010C94AD110C94871100
:100050000C9465010C9465010C9465010C94650188
:100060000C94CD150C9465017374645F6D736773A4
:100070002F54696D650063643731363663373463F6
:1000800035353263333131666263633266653561BB
:1000900037626332383900726F7373657269616CED
:1000A0005F6D7367732F546F706963496E666F007D
:1000B00030616435316638386663343438393266D5
:1000C00038633130363834303737363436303035BF
:1000D00000726F7373657269616C5F6D7367732F04
:1000E0004C6F6700313161626437333163323539C7
:1000F00033333236316364363138336264313264DB
:100100003632393500726F7373657269616C5F6D79
:100110007367732F52657175657374506172616D89
:1001200000396630653938626461363539383139BD
:1001300038366464663533616661376134306534FE
:1001400039007374645F6D7367732F48656164650C
:1001500072003231373664656361656362636537A7
:10016000386162633362393665663034396661629C
:1001700065640067656F6D657472795F6D73677331
:100180002F566563746F72330034613834326236CF
:10019000356634313330383464633262313066620C
:1001A0003438346561376631370067656F6D657463
:1001B00072795F6D7367732F566563746F72335313
:1001C00074616D7065640037623332346337333283
:1001D00035653638336266303261396231346230C7
:1001E000313039306563370067656F6D65747279DA
:1001F0005F6D7367732F5477697374003966313993
:1002000035663838313234366664666132373938AB
:1002100064316433656562636138346100000000F5
:100220000023002600290000000000240027002AE7
:100230000000000000250028002B00040404040432
:100240000404040202020202020303030303030183
:10025000020408102040800102040810200102045A
:10026000081020000000080002010000030407003D
:100270000000000000000000F41D11241FBECFEF9D
:10028000D8E0DEBFCDBF12E0A0E0B1E0E6E0FAE4E6
:1002900002C005900D92A835B107D9F727E0A8E56F
:1002A000B2E001C01D92AA3DB207E1F711E0CDE333
:1002B000D1E004C02197FE010E94B022CC33D107C7
:1002C000C9F70E9477180C9401250C940000FC01DA
:1002D000EE54FD4F808108958CEF91E0089588EEF3
:1002E00091E00895FC0187A190A50895CF92DF9237
:1002F000EF92FF92FC011082118212821382DB01C5
:1003000020E030E04D9150E0022E02C0440F551F16
:100310000A94E2F7052E000C660B770BC080D180A3
:10032000E280F3804C295D296E297F294083518327
:1003300062837383285F3F4F2032310519F7FF90A6
:10034000EF90DF90CF900895CF92DF92EF92FF92DF
:1003500020E030E06A017B01022E04C0F694E794AD
:10036000D794C7940A94D2F7FC01C192CF01285FB9
:100370003F4F2032310571F7FF90EF90DF90CF9023
:1003800008958F929F92AF92BF92CF92DF92EF9299
:10039000FF92FC01C480D580E680F780C0925C02A9
:1003A000D0925D02E0925E02F0925F02628D738DE8
:1003B000848D958D609358027093590280935A02F0
:1003C00090935B022EEE3CE74FEB5DE30E94DE2153
:1003D0004B015C019B01AC01C701B6010E940D20DD
:1003E00060938E0770938F07809390079093910787
:1003F000A5019401C701B6010E940E206093460733
:10040000709347078093480790934907FF90EF90B8
:10041000DF90CF90BF90AF909F908F9008958CEF1A
:1004200091E0089588EE91E0089587EC91E00895B9
:100430008AEA91E0089589E891E0089583E791E0E0
:10044000089582E591E0089582E491E008958F9205
:100450009F92AF92BF92CF92DF92EF92FF920F9353
:100460001F93CF93DF9300D000D0CDB7DEB77C01D0
:100470008B01FB01808190E0A0E0B0E0F701828376
:100480009383A483B583FB012181922BF70182839F
:100490009383A483B583FB012281A22BF70182837E
:1004A0009383A483B583FB012381B22BF70182835D
:1004B0009383A483B583FB01848190E0A0E0B0E046
:1004C000F70186839783A087B187FB012581922B53
:1004D000F70186839783A087B187FB012681A22B32
:1004E000F70186839783A087B187FB012781B22B11
:1004F000F70186839783A087B187FB01808590E011
:10050000A0E0B0E0F70182879387A487B587FB015D
:100510002185922BF70182879387A487B587FB01FA
:100520002285A22BF70182879387A487B587FB01D9
:100530002385B22BF70182879387A487B587645FF1
:100540007F4FCE0101960E94760189819A81AB810D
:10055000BC814C015D01F0E18F0E911CA11CB11C0E
:10056000680120E1C20ED11CA601401B510B60E0C6
:1005700070E0481559056A057B0548F4F60141917C
:100580006F019F0122503109F9014083EDCFF8013D
:10059000E80FF91F1786015F1F4FF70117870687BE
:1005A00040960F900F900F900F90DF91CF911F9179
:1005B0000F91FF90EF90DF90CF90BF90AF909F9002
:1005C0008F900895CF93DF93DC0116968D919C91C7
:1005D0001797FB0116962D913C91179725393105F8
:1005E000ECF4449114966D917C911597EB01C20F38
:1005F000D31F488316962D913C91179731961496E8
:10060000CD91DC911597C20FD31F48812F5F3F4FCB
:1006100017963C932E9316974111DCCF16962D9189
:100620003C9117972539310534F022E030E01996D6
:100630003C932E93189714962D913C911597820F09
:10064000931FDF91CF9108950C94E20241110C9415
:10065000E202CB010895CB0108950895442341F0AF
:1006600021E030E0FC01338322838AE091E00895A9
:10067000CB01089581E291E0089585E091E008952D
:1006800084EE90E0089581ED90E008958F929F921E
:10069000AF92BF92CF92DF92EF92FF920F931F9390
:1006A000CF93DF9300D000D0CDB7DEB77C018B01B4
:1006B000FB018191BF01F7018283CE0101960E9467
:1006C000760189819A81AB81BC814C015D01F5E0A5
:1006D0008F0E911CA11CB11C680125E0C20ED11C1B
:1006E000A601401B510B60E070E0481559056A05F2
:1006F0007B0548F4F60141916F019F0122503109B9
:10070000F9014083EDCFF801E80FF91F14820C5F67
:100710001F4FF7011483038305960F900F900F90DE
:100720000F90DF91CF911F910F91FF90EF90DF908D
:10073000CF90BF90AF909F908F90089580EB90E006
:10074000089587E990E008954F925F926F927F92AB
:100750008F929F92AF92BF92CF92DF92EF92FF92D1
:100760000F931F93CF93DF93CDB7DEB72C970FB6C0
:10077000F894DEBF0FBECDBF7C018B01DB018C91F5
:1007800090E0F7019383828311962C91922B9383AF
:1007900082836E5F7F4FCE0109960E947601898425
:1007A0009A84AB84BC84B501A4014A5F5F4F6F4F4C
:1007B0007F4FF8013696CF01801B910BA0E0B0E08F
:1007C00084179507A607B70728F48191DF011297D0
:1007D0008C93F1CFF801E80DF91D1582C80105963B
:1007E000D70115969C938E931497B4016A5F7F4F3F
:1007F000600F711FCE0105960E947601BAE08B0E44
:10080000911C4D815E816F8178852401092C000C3B
:1008100066087708440E551E661E771EF801E80D1F
:10082000F91DCF01801B910BA0E0B0E08415950568
:10083000A605B70528F48191DF0112978C93F1CFBB
:100840006401C40ED51EB8016C0D7D1DFB013197EE
:100850001082C4010197800F911FF701978386834F
:10086000CE0101960E947601A6014C5F5F4F498040
:100870005A806B807C804A01052E000CAA08BB08B8
:10088000840C951CA61CB71CF801E40FF51F9F01F2
:10089000201B310BC901A0E0B0E088159905AA051D
:1008A000BB0528F48191DF0112978C93F0CFCA0128
:1008B000840D951DF801E80FF91FDF0111971C92B7
:1008C0009A0121503109020F131FD70119961C9369
:1008D0000E9318972181428150E060E070E0BA01E8
:1008E00055274427522B2081422B2381722BF7015D
:1008F000428753876487758704962C960FB6F894C1
:10090000DEBF0FBECDBFDF91CF911F910F91FF9042
:10091000EF90DF90CF90BF90AF909F908F907F909F
:100920006F905F904F90089586E790E0089588E675
:1009300090E00895FC01DB014C9150E060E070E034
:10094000428353836483758311968C911197582B3E
:10095000428353836483758312968C911297682B1C
:10096000428353836483758313968C911397782BFA
:10097000428353836483758314964C91149750E09B
:1009800060E070E0468357836087718715968C918D
:100990001597582B468357836087718716968C91DD
:1009A0001697682B468357836087718717968C91BB
:1009B000782B468357836087718788E090E008959D
:1009C000DC01FB0112968C911297808313968C9117
:1009D0001397818314968C911497828315968C912A
:1009E0001597838316968C911697848317968C910E
:1009F0001797858318968C911897868319968C91F2
:100A0000878388E090E008958F929F92AF92BF9283
:100A1000CF92DF92EF92FF920F931F93FC01DB01C5
:100A2000C380C294C69427E0C2228C2C912CA12CA6
:100A3000B12C8D929D92AD92BC921397C480D12C13
:100A4000E12CF12C33E0CC0CDD1CEE1CFF1C3A95A4
:100A5000D1F7C828D928EA28FB28CD92DD92ED925B
:100A6000FC921397058110E020E030E04BE0000F8E
:100A7000111F221F331F4A95D1F7C02AD12AE22A1B
:100A8000F32ACD92DD92ED92FC92139706810F70BE
:100A900010E020E030E053E1000F111F221F331F50
:100AA0005A95D1F70C291D292E293F290D931D9305
:100AB0002D933C931397868182958F7047814F7752
:100AC00050E060E070E094E0440F551F661F771F10
:100AD0009A95D1F7482B4115510561057105A1F093
:100AE000405853406109710997E1440F551F661F33
:100AF000771F9A95D1F7402B512B622B732B4D9377
:100B00005D936D937C9313974781407850E060E04C
:100B100070E0742F6627552744270D911D912D9164
:100B20003C911397402B512B622B732B4D935D936C
:100B30006D937C93139788E090E01F910F91FF9045
:100B4000EF90DF90CF90BF90AF909F908F900895DF
:100B5000EF92FF920F931F93CF93DF938C017B0152
:100B6000BC016E5F7F4FC7010E940405EC01B80114
:100B70006A5F7F4FC7018C0F9D1F0E940405C80F3D
:100B8000D91FB801665F7F4FC7018C0F9D1F0E9460
:100B900004058C0F9D1FDF91CF911F910F91FF9046
:100BA000EF900895EF92FF920F931F93CF93DF93EF
:100BB0007C01EB0102960E94A8058C01BE01680F22
:100BC000791FC70140960E94A805800F911FDF91F1
:100BD000CF911F910F91FF90EF9008950F931F9366
:100BE000CF93DF938C01EC012796CE010E94D205B2
:100BF000D8019596ED91FC919697CE01DF91CF911A
:100C00001F910F910994EF92FF920F931F93CF932F
:100C1000DF937C01EB0102960E9427028C01BE014A
:100C2000680F791FC70142960E94A805800F911F87
:100C3000DF91CF911F910F91FF90EF9008958F92C8
:100C40009F92AF92BF92CF92DF92EF92FF920F935B
:100C50001F93CF93DF93EC01CB01BA018B019C0171
:100C600047E135952795179507954A95D1F71127AF
:100C700022273327011511052105310521F00058E0
:100C80001C4F2F4F3F4F188219821A826B017C0133
:100C900045E0CC0CDD1CEE1CFF1C4A95D1F7CB8245
:100CA0006B017C0153E0F594E794D794C7945A956F
:100CB000D1F7CC826B017C01EBE0F594E794D794FB
:100CC000C794EA95D1F7CD8268017901F4E0CC0CA4
:100CD000DD1CEE1CFF1CFA95D1F74B015C01A3E172
:100CE000B594A79497948794AA95D1F7482D4F70FF
:100CF000C42ACE8268017901B4E0F594E794D794D0
:100D0000C794BA95D1F720E030E0A9010E947A207B
:100D100087FD02C0CF8203C00C2D00680F8388E0DE
:100D200090E0DF91CF911F910F91FF90EF90DF90B6
:100D3000CF90BF90AF909F908F900895EF92FF92C9
:100D40000F931F93CF93DF937C018B01FC014281B2
:100D5000538164817581C8010E941F06EC01F7016F
:100D60004681578160857185C8018C0F9D1F0E9447
:100D70001F06C80FD91FF701428553856485758505
:100D8000C8018C0F9D1F0E941F068C0F9D1FDF91B5
:100D9000CF911F910F91FF90EF900895EF92FF92E6
:100DA0000F931F93CF93DF937C01EB0102960E9478
:100DB0009E068C01BE01680F791FC70140960E94F4
:100DC0009E06800F911FDF91CF911F910F91FF9091
:100DD000EF9008950F931F93CF93DF93CDB7DEB7B6
:100DE0002A970FB6F894DEBF0FBECDBF8C0188E204
:100DF00091E09A8389831B821C821D821E821F823E
:100E0000188619861A86D801ED91FC910190F0811F
:100E1000E02DAE014F5F5F4F6AE070E0C8010995B9
:100E20000E945612F80160877187828793872A96FD
:100E30000FB6F894DEBF0FBECDBFDF91CF911F91EB
:100E40000F910895CF93DF9383E00E940812EC0185
:100E500085E00E940812C817D90731F48091D202A8
:100E60009091D302019705C08091D2029091D30254
:100E700001969093D3028093D202DF91CF9108958F
:100E8000CF93DF9382E00E940812EC0184E00E947D
:100E90000812C817D90731F48091D4029091D50275
:100EA000019605C08091D4029091D502019790934C
:100EB000D5028093D402DF91CF910895EF92FF92F3
:100EC0000F931F93CF93DF938C01EB01FC01828181
:100ED00088838381898384818A8385818B838681CA
:100EE0008C8387818D8380858E8381858F838285A6
:100EF00088878385898784858A8785858B87A6856A
:100F0000B785FD0101900020E9F731977F01EA1ACA
:100F1000FB0AA70160E070E0CE010C960E94A401DC
:100F2000F80166857785A701CE0140960E94C1240D
:100F3000C7014096DF91CF911F910F91FF90EF90E5
:100F40000895EF92FF920F931F93CF93DF937C014D
:100F5000EB0102960E945E078C01BE01680F791FAB
:100F6000C70142960E949E06800F911FDF91CF918C
:100F70001F910F91FF90EF9008954F925F926F92A3
:100F80007F92AF92BF92CF92DF92EF92FF920F9338
:100F90001F93CF93DF93EC017B018A81FB01808358
:100FA0008B8181838C8182838D818383DB01179682
:100FB00040E050E0BA01E4E0F0E04A805B806C8001
:100FC0007D808F010C5F1F4F441555056605770521
:100FD000C0F48A859B85E80FF91F3497D080218162
:100FE00092818381FD013397D0823196208331969F
:100FF00090838C93F8014F5F5F4F6F4F7F4F149634
:10100000DCCFEE0DFF1D8C8580838D8581838E85E1
:1010100082838F85838380E090E040E050E0BA01D6
:101020004C845D846E847F84F701E00FF11F0C5FB8
:101030001F4F4415550566057705B8F4AC89BD8981
:10104000A80FB91FCC901196DC90119712963C9185
:10105000129713962C91C082D182328323834F5FE3
:101060005F4F6F4F7F4F0496DBCF8E8980838F89D0
:101070008183888D8283898D8383412C512C320119
:101080008E899F89A88DB98D481659066A067B06F8
:1010900080F55201AA0CBB1CEC8DFD8DEA0DFB1DE9
:1010A000A081B181FD0101900020E9F731976F0126
:1010B000CA1ADB0AA60160E070E0C701800F911F29
:1010C0000E94A4010C5F1F4F8C8D9D8DFC01EA0DC9
:1010D000FB1D60817181A601C701800F911F0E94D5
:1010E000C1240C0D1D1DFFEF4F1A5F0A6F0A7F0A06
:1010F000C7CFC801DF91CF911F910F91FF90EF9063
:10110000DF90CF90BF90AF907F906F905F904F90A7
:101110000895EF92FF920F931F93CF93DF938C016B
:101120007B01EC018A81FB018193AB81BC81ED01E4
:1011300009900020E9F72197CA1BDB0BAE0160E0A4
:1011400070E0CF010E94A401F80163817481AE01B7
:10115000C70105960E94C124CE010596DF91CF916B
:101160001F910F91FF90EF900895CF92DF92EF9231
:10117000FF920F931F93CF93DF936C01EB01FC0160
:101180008281888383818983A481B581FD01019057
:101190000020E9F731978F010A1B1B0BA80160E0C3
:1011A00070E0CE0102960E94A401F601648175816F
:1011B000A801CE0106960E94C124C8010696F60138
:1011C000A681B781FD0101900020E9F731977F01E9
:1011D000EA1AFB0AA70160E070E08C0F9D1F0E94D5
:1011E000A401065F1F4FF60166817781A701CE013A
:1011F000800F911F0E94C1240E0D1F1DF601A085B6
:10120000B185FD0101900020E9F731977F01EA1ACD
:10121000FB0AA70160E070E0CE01800F911F0E94E1
:10122000A4010C5F1F4FF60160857185A701CE01F7
:10123000800F911F0E94C124C8018E0D9F1DF601D1
:101240006285438534852585C80FD91F6883498306
:101250003A832B830496DF91CF911F910F91FF90DA
:10126000EF90DF90CF9008950C945A232CE131E059
:10127000FC0131832083848195810C945A23CF9380
:10128000DF93EC010E943609CE01DF91CF910C94DF
:101290005A232F923F924F925F926F927F928F923A
:1012A0009F92AF92BF92CF92DF92EF92FF920F93F5
:1012B0001F93CF93DF93CDB7DEB728970FB6F8947F
:1012C000DEBF0FBECDBF8C015B01DB018C9111969F
:1012D0009C9111971296CC901297D12CE12CF12C65
:1012E0007601DD24CC24D92AC82A13968C91F82AB9
:1012F000F80182819381A481B5818C159D05AE058D
:10130000BF0570F4B601660F771F660F771F8285E1
:1013100093850E94F223D8011B969C938E931A9773
:10132000F801C282D382E482F582D5011796C12CDE
:10133000D12C7601F4E08F2E912C98012A5F3F4F3B
:10134000F8014281538164817581C4010496C416F9
:10135000D506E606F70680F54C9150E060E070E0B7
:10136000742F662755274427FD013397E0814E2BC4
:10137000FD013297E0815E2BFD013197E0816E2BFC
:10138000F80146835783608771874C01089742852F
:101390005385840F951FF9014081518162817381CA
:1013A000FC014083518362837383FFEFCF1ADF0A0E
:1013B000EF0AFF0A1496C4CFF401EA0DFB1D208149
:1013C0003181C280D12CE12CF12C7601DD24CC249A
:1013D000D32AC22A2381F22A4C01F80184859585FB
:1013E000A685B7858C159D05AE05BF0570F4B601C1
:1013F000660F771F660F771F848995890E94F223F5
:10140000D80155969C938E935497F801C486D5863F
:10141000E686F78620E030E0C12CD12C7601D80199
:101420005096F8014485558566857785F501E80D68
:10143000F91DC4010496C416D506E606F70648F55C
:101440009180428150E060E070E0BA015527442766
:10145000592990804929E3817E2BF801408B518BDB
:10146000628B738B4C0184899589FC01E20FF31F19
:101470004D915D916D917C9113974083518362836F
:101480007383FFEFCF1ADF0AEF0AFF0A2C5F3F4F8B
:10149000C8CF20813181C280D12CE12CF12C760182
:1014A000DD24CC24D32AC22A2381F22A4C01F8015C
:1014B00086899789A08DB18D8C159D05AE05BF05D8
:1014C00060F4B601660F771F848D958D0E94F2231C
:1014D000D8015D969C938E935C97F801C68AD78A53
:1014E000E08EF18E412C512C32011801FAE12F0EC1
:1014F000311CF80186899789A08DB18D481659064F
:101500006A067B0608F05AC0B501680D791DCE0148
:1015100001960E94760194012C5F3F4FC980DA80CA
:10152000EB80FC80C901032E000CAA0BBB0BAC01A5
:10153000BD014C0D5D1D6E1D7F1D4D835E836F8350
:101540007887F501E20FF31FAF014A195B09CA0161
:10155000A0E0B0E04D815E816F81788584179507AA
:10156000A607B70728F44191DF0112974C93ECCFFF
:10157000C9018C0D9D1DF501E80FF91F31971082EF
:10158000215031092A0D3B1DD8015B963C932E93C7
:101590005A974C01C201880F991F5C96ED91FC91FE
:1015A0005D97E80FF91FD1018D919C919183808304
:1015B000BFEF4B1A5B0A6B0A7B0A9BCFC4012896CC
:1015C0000FB6F894DEBF0FBECDBFDF91CF911F9154
:1015D0000F91FF90EF90DF90CF90BF90AF909F90D2
:1015E0008F907F906F905F904F903F902F900895D5
:1015F000CF93DF93EC01623059F1A8F4613009F028
:101600004EC08B819C8120E030E040E050E06A8158
:10161000CD960E9417178B819C8120E030E040E03E
:1016200050E1698137C06330D1F06430C1F58B81FE
:101630009C8120E030E040E050E06981CD960E943E
:1016400017178B819C8120E030E040E050E021C002
:101650008B819C8120E030E040E050E010C08B8125
:101660009C8120E030E040E050E06881CD960E940F
:1016700017178B819C8120E030E040E050E16981C8
:10168000CD960E9417178B819C8120E030E040E0CE
:1016900050E16A81CD96DF91CF910C941717DF91BD
:1016A000CF910895CF93DF9300D000D01F92CDB794
:1016B000DEB724E331E03A8329836B835D834C8377
:1016C000DC01ED91FC910190F081E02DAE014F5FC6
:1016D0005F4F67E070E009950F900F900F900F90AB
:1016E0000F90DF91CF910895AF92BF92CF92DF928A
:1016F000EF92FF920F931F93CF93DF93EC016B0157
:10170000643671053CF0FC01EE54FD4F8081882366
:1017100009F461C0DA01ED91FC910190F081E02DB6
:10172000BE016D5C7E4FCA0109958C017E01B4ED4E
:10173000EB1ABEEFFB0A2FEFF70120832EEF319655
:10174000208331968083319690833196890F8095DE
:1017500080833196C082DE01AE5CBE4FDC9245E0F4
:1017600050E020E030E0C80107964817590730F4F0
:101770006191260F311D4F5F5F4FF7CF085F1F4FFD
:101780008C0F9D1FFC01E45DFE4F209520830931E5
:10179000F1E01F07A9F0680157018A819B81D501FB
:1017A0006D915D01DC01ED91FC910190F081E02DE6
:1017B0000995C5018E199F098017910774F30DC013
:1017C0004EEB51E063E0CE010E94520BCC24CA9450
:1017D000DD24DA9402C0C12CD12CC601DF91CF9157
:1017E0001F910F91FF90EF90DF90CF90BF90AF903F
:1017F00008952F923F924F925F926F927F928F92B5
:101800009F92AF92BF92CF92DF92EF92FF920F938F
:101810001F93CF93DF93CDB7DEB7E2970FB6F8945F
:10182000DEBF0FBECDBF8C010E9456122B013C01C2
:10183000980129543D4F3E8F2D8FF9018081918170
:10184000A281B381A3019201281B390B4A0B5B0BC8
:10185000DA01C901893F9A42A105B10510F0359717
:101860001082480148E5841A4DEF940AD4018D9105
:101870009C91892B79F0F801E554FD4F808191818D
:10188000A281B38184159505A605B70518F4F40166
:1018900011821082980120553D4F3A8F298FA8015F
:1018A00044555D4F5C8F4B8FC801449698A38F8F32
:1018B000D801AE54BD4FBCA3ABA3F801E054FD4F1B
:1018C000FAA7E9A7215F3F4F3CA72BA7180136E5F0
:1018D000231A3DEF330A4E5F5F4F5AA349A3895540
:1018E0009D4F9EA78DA7A30192012C5E3F4F4F4FA6
:1018F0005F4F2FA738AB49AB5AABD80112968D91E9
:101900009C911397DC01ED91FC910284F385E02D0D
:1019100009959C0197FDF2C2E98DFA8D8081918134
:10192000820F931F91838083D4014D915C91473046
:101930005105C9F4E9A1FAA180819181AC014F5F01
:101940005F4F51834083F801E80FF91F248BD101C9
:101950008D919C91119701978D939C93892B69F69A
:1019600088E090E033C04115510541F52F3F310526
:1019700089F481E090E0D4018D939C932FA538A940
:1019800049A95AA9ADA5BEA52D933D934D935C934E
:101990001397B3CF0E945612DC01CB01841995092D
:1019A000A609B7090697A105B10508F4A6CFF80165
:1019B000EE54FD4F10828EEF9FEFC8C241305105AB
:1019C000A9F42E3F310531F482E090E0F4019183D7
:1019D000808393CFD4011D921C92EBA1FCA1808146
:1019E00081118BCFC8010E94EA0687CF4230510592
:1019F00089F4D1012D933C93E9A1FAA111821082BF
:101A000083E090E0D4018D939C93E98DFA8D31832E
:101A1000208373CF4330510569F4322F2227D1013F
:101A20008D919C911197280F391F2D933C9384E041
:101A300090E0CCCF4430510589F460E071E00E9421
:101A40005B228F3F910531F485E090E0D4018D93C6
:101A50009C9353CFF401118210824FCF4530510532
:101A600071F4AB8DBC8D2D933C9386E090E0F40136
:101A700091838083A98DBA8D2D933C933ECF4630C0
:101A8000510599F4322F2227EB8DFC8D80819181B5
:101A9000280F391F3183208387E090E0D4018D9394
:101AA0009C93F1018081918159CF4830510509F013
:101AB00024CFD4011D921C9260E071E00E945B2251
:101AC0008F3F910509F019CFEB8DFC8D80819181BD
:101AD000009709F042C1C8010E94EA0680E191E046
:101AE0009A8389831C821B8284E392E09E838D8388
:101AF00098878F839A8789871B861C861D861E86FA
:101B00006801FCEBCF1AFDEFDF0A78012AE8E21A40
:101B10002DEFF20A2CE1A22E21E0B22ED6012D905B
:101B20003C902114310409F477C01A8A198AB88AC2
:101B3000AF861E8A1D8A86E990E00E94C5229C8B92
:101B40008B8BFC011082EB56FF4F1082D101159652
:101B50008D919C9116979C838B836D917C911197AD
:101B600012964C91CE010F960E9426039E838D8380
:101B7000D601ED91FC9183819481DC01ED91FC9182
:101B80000480F581E02D0995BC01CE010F960E94DD
:101B9000E20298878F83D601ED91FC918381948135
:101BA000DC01ED91FC910680F781E02D0995BC01E7
:101BB000CE010F960E94E2029A87898728E131E0E0
:101BC00040E050E02B873C874D875E87D8018D91A0
:101BD0009C91F601A081B18119966D917C911A9723
:101BE000DC01ED91FC91AE014F5F5F4FC80109959B
:101BF00089899A898130910519F447EF51E004C031
:101C0000029731F44BE052E063E0C8010E94520BAE
:101C1000CE010F960E943609B2E0CB0ED11CCE1435
:101C2000DF0409F07BCF9CE1C92E91E0D92EF701AA
:101C3000A080B180A114B10409F474C01A8A198A71
:101C4000D88ACF861E8A1D8A86E990E00E94C52226
:101C50009C8B8B8BDC011C92FC01EB56FF4F10829E
:101C6000F501828193819C838B8364817581468198
:101C7000CE010F960E9426039E838D83D7018D91FE
:101C80009C91DC01ED91FC910480F581E02D09959A
:101C9000BC01CE010F960E94E20298878F83F70164
:101CA00080819181DC01ED91FC910680F781E02D2E
:101CB0000995BC01CE010F960E94E2029A8789879E
:101CC00028E131E040E050E02B873C874D875E877C
:101CD000D801ED91FC91A080B180F70180819181C4
:101CE000DC01ED91FC910280F381E02D0995AE01BC
:101CF0004F5F5F4FBC01C801F501099589899A8939
:101D00008130910519F447EF51E004C0029731F496
:101D10004BE052E063E0C8010E94520BCE010F96E7
:101D20000E943609F2E0EF0EF11CE814F90409F004
:101D30007ECFF801EE54FD4F81E0808331964082E2
:101D4000518262827382AD8DBE8D4D925D926D9295
:101D50007C9213978FEF9FEFF9C08A30910509F0BD
:101D6000A2C088E291E09A8389831B821C821D8233
:101D70001E821F82188619861A860E945612F80142
:101D8000C084D184E284F3849B01AC012C193D0909
:101D90004E095F0969017A016F8D78A1CE01019624
:101DA0000E949A04C701B60128EE33E040E050E0FB
:101DB0000E946F22CB80DC80ED80FE80C20ED31E9D
:101DC000E41EF51ECB82DC82ED82FE829B01AC011B
:101DD00060E472E48FE090E00E944B22CF80D884D0
:101DE000E984FA84DC01CB018C0D9D1DAE1DBF1D65
:101DF0008F839887A987BA870E945612CF80D8848C
:101E0000E984FA8436E3D31A35E6E30A34ECF30ABC
:101E100028EE33E040E050E00E946F222DA33EA365
:101E20004FA358A79B01AC0160E472E48FE090E0FF
:101E30000E944B22A7019601261B370B480B590B1A
:101E4000CA01B901CB80DC80ED80FE8031E0C31A8D
:101E5000D108E108F1082DA13EA14FA158A5C21A51
:101E6000D30AE40AF50A20E03AEC4AE95BE30E946F
:101E70006F22C20ED31EE41EF51ED8011C96CD9211
:101E8000DD92ED92FC921F97F801608B718B828B33
:101E9000938B0E945612AD8DBE8D6D937D938D9365
:101EA0009C9313972ACD8630910559F46F8D78A1B4
:101EB00089A59AA50E94490981E0EBA5FCA580832C
:101EC0001CCD8B30910521F4ABA1BCA11C9215CD8A
:101ED000FC01E952FF4FEE0FFF1FE00FF11F808161
:101EE0009181009709F409CDDC01ED91FC910190FD
:101EF000F081E02D6F8D78A10995FFCCF801EE54AB
:101F0000FD4F8081882301F17801BDE4EB1ABDEF1C
:101F1000FB0AF70180819181A281B381A301920123
:101F2000281B390B4A0B5B0BDA01C901853C994030
:101F3000A105B10548F0C8010E94EA06D7014D92FB
:101F40005D926D927C92139780E090E0E2960FB6DE
:101F5000F894DEBF0FBECDBFDF91CF911F910F91DF
:101F6000FF90EF90DF90CF90BF90AF909F908F90B9
:101F70007F906F905F904F903F902F900895CF92F9
:101F8000DF92EF92FF920F931F93CF93DF936C0139
:101F90007A018B01C0E0D0E0CE15DF0589F0D801D1
:101FA0006D918D01D601ED91FC910190F081E02DB4
:101FB000C6010995892B11F47E0102C02196ECCF50
:101FC000C701DF91CF911F910F91FF90EF90DF90AC
:101FD000CF900895FC01538D448D252F30E0842F40
:101FE00090E0821B930B541710F0CF960895019741
:101FF0000895FC01918D828D981761F0828DDF012B
:10200000A80FB11D5D968C91928D9F5F9F73928FEB
:1020100090E008958FEF9FEF0895FC01918D828DE0
:10202000981731F0828DE80FF11D858D90E00895AD
:102030008FEF9FEF0895FC01918D228D892F90E005
:10204000805C9F4F821B91098F739927089585E3C8
:1020500093E00E941B1021E0892B09F420E0822FDD
:102060000895FC01848DDF01A80FB11DA35ABF4F55
:102070002C91848D90E001968F739927848FA68987
:10208000B7892C93A089B1898C9180648C93938DAE
:10209000848D981306C00288F389E02D80818F7D9E
:1020A00080830895EF92FF920F931F93CF93DF9356
:1020B000EC0181E0888F9B8D8C8D981305C0E88999
:1020C000F989808185FD24C0F62E0B8D10E00F5F0D
:1020D0001F4F0F731127E02E8C8DE8120CC00FB626
:1020E00007FCFACFE889F989808185FFF5CFCE0119
:1020F0000E943110F1CF8B8DFE01E80FF11DE35AE4
:10210000FF4FF0820B8FEA89FB898081806207C0D4
:10211000EE89FF896083E889F98980818064808302
:1021200081E090E0DF91CF911F910F91FF90EF90B0
:102130000895CF93DF93EC01888D8823C9F0EA8955
:10214000FB89808185FD05C0A889B9898C9186FDB0
:102150000FC00FB607FCF5CF808185FFF2CFA889AD
:10216000B9898C9185FFEDCFCE010E943110E7CF68
:10217000DF91CF91089580E090E0892B29F00E94B3
:10218000271081110C9400000895089585ED809327
:10219000BC008091BC0084FDFCCF10920403089524
:1021A00040918202262F30E0240F311D213231056B
:1021B000DCF4209104032430C9F4FC0180E090E0B9
:1021C000861758F4309182022191DC01A05ABD4F4C
:1021D000A30FB11D2C930196F3CF80918202680F5B
:1021E0006093820280E0089581E0089582E008957E
:1021F0000895E091D1028091D002E81730F4F0E028
:10220000E055FD4F808190E008958FEF9FEF089596
:102210009091D1028091D002981750F4E92FF0E00C
:10222000E055FD4F208130E09F5F9093D10202C0C6
:102230002FEF3FEFC90108958091D00290E02091E7
:10224000D102821B91090895CF92DF92EF92FF9203
:102250000F931F93CF93DF937C01262F972F8A0133
:1022600080910503882391F0C62FD72F6E01C40EED
:10227000D51ECC15DD0571F06991D701ED91FC916A
:102280000190F081E02DC7010995F3CF642F822FD3
:102290000E94D010C801DF91CF911F910F91FF9044
:1022A000EF90DF90CF900895CF93DF931F92CDB73B
:1022B000DEB76983209105032223D1F02091280302
:1022C000203240F021E030E0FC013383228380E0C3
:1022D00090E015C080910603E82FF0E0E95FFC4F25
:1022E000998190838F5F809306038093280305C0B4
:1022F00061E0CE0101960E94D01081E090E00F9045
:10230000DF91CF910895089580E090E008951F92A5
:102310000F920FB60F9211242F933F934F935F9319
:102320006F937F938F939F93AF93BF93EF93FF939D
:1023300085E393E00E943110FF91EF91BF91AF913F
:102340009F918F917F916F915F914F913F912F91CD
:102350000F900FBE0F901F9018951F920F920FB6FF
:102360000F9211242F938F939F93EF93FF93E091FC
:102370004503F09146038081E0914B03F0914C03BB
:1023800082FD12C0908180914E038F5F8F732091E8
:102390004F03821751F0E0914E03F0E0EB5CFC4FED
:1023A000958F80934E0301C08081FF91EF919F91A3
:1023B0008F912F910F900FBE0F901F901895833023
:1023C00081F028F4813099F08230A1F008958730AF
:1023D000A9F08830B9F08430D1F4809180008F7DED
:1023E00003C0809180008F7780938000089584B52A
:1023F0008F7702C084B58F7D84BD08958091B00031
:102400008F7703C08091B0008F7D8093B0000895D6
:10241000CF93DF93282F30E0F901ED59FD4F8491E0
:10242000F901E15BFD4FD491F901E55CFD4FC491E9
:10243000CC2391F081110E94DF11EC2FF0E0EE0F20
:10244000FF1FE35EFD4FA591B491EC91ED2381E078
:1024500090E021F480E002C080E090E0DF91CF9135
:1024600008953FB7F8948091AC029091AD02A0918D
:10247000AE02B091AF0226B5A89B05C02F3F19F060
:102480000196A11DB11D3FBFBA2FA92F982F8827F4
:10249000820F911DA11DB11DBC01CD0142E0660F4F
:1024A000771F881F991F4A95D1F708952FB7F89481
:1024B0006091A8027091A9028091AA029091AB024A
:1024C0002FBF08951F920F920FB60F9211242F93D2
:1024D0003F938F939F93AF93BF938091A802909166
:1024E000A902A091AA02B091AB023091A70223E009
:1024F000230F2D3720F40196A11DB11D05C026E83C
:10250000230F0296A11DB11D2093A7028093A8025C
:102510009093A902A093AA02B093AB028091AC025F
:102520009091AD02A091AE02B091AF020196A11DB3
:10253000B11D8093AC029093AD02A093AE02B09314
:10254000AF02BF91AF919F918F913F912F910F90CB
:102550000FBE0F901F9018951F920F920FB60F92FB
:1025600011242F933F934F935F936F937F938F9398
:102570009F93AF93BF93EF93FF93E0910201F0918C
:1025800003010995FF91EF91BF91AF919F918F91B9
:102590007F916F915F914F913F912F910F900FBE5F
:1025A0000F901F9018951F920F920FB60F92112443
:1025B0002F933F934F935F936F937F938F939F934B
:1025C000AF93BF93EF93FF93E0910001F09101016E
:1025D0000995FF91EF91BF91AF919F918F917F915D
:1025E0006F915F914F913F912F910F900FBE0F9080
:1025F0001F9018952F923F924F925F926F927F9209
:102600008F929F92AF92BF92CF92DF92EF92FF9202
:102610000F931F93CF93DF93CDB7DEB72F970FB6EE
:10262000F894DEBF0FBECDBF9F878E870E945612E3
:102630006D837E838F839887EE85FF8582A193A12A
:10264000A4A1B5A14D815E816F817885481B590B8E
:102650006A0B7B0B86A597A5A0A9B1A948175907B6
:102660006A077B0708F40AC1248D358DD9018D9145
:102670009D910D90BC91A02D89839A83AB83BC83DF
:1026800000A0F1A1E02D9C01AD01608171818281EA
:1026900093810E940D204B015C01EE85FF8522A5F0
:1026A00033A544A555A569817A818B819C810E94BF
:1026B0000D206B017C01AE85BF8550962D913D911B
:1026C0004D915C915397C501B4010E94DE21EE85C6
:1026D000FF8526A137A140A551A50E940E202B0100
:1026E0003C01AE85BF8596966D937D938D939C93AB
:1026F0009997DB96BC91B987B11118C0EE85FF851B
:102700002485358546855785C701B6010E94DE219F
:102710009B01AC01C301B2010E940D20AE85BF85B3
:1027200096966D937D938D939C939997EE85FF85F7
:1027300046A057A060A471A416A907A930AC21AC8B
:10274000212F302F432D522DC301B2010E94D921D8
:1027500018162CF4812F902FA32DB22D18C0AE8502
:10276000BF85D2968D919D910D90BC91A02D8A87A9
:102770009B87AC87BD879C01AD01C301B2010E945C
:102780007A2087FF0AC08A859B85AC85BD85EE854A
:10279000FF8586A397A3A0A7B1A7F985FF2379F0AA
:1027A000AE85BF851C962D913D914D915C911F97F3
:1027B000C501B4010E94DE214B015C0103C0812CE4
:1027C000912C5401EE85FF852489358946895789E6
:1027D000C701B6010E94DE219B01AC01AE85BF8519
:1027E00096966D917D918D919C9199970E940D2067
:1027F0009B01AC01C501B4010E940E206B017C015C
:10280000212F302F432D522D0E94D9211816A4F0CC
:10281000EE85FF8512A903A934A825A8212F302F02
:10282000432D522DB601C7010E947A2087FD04C0B6
:102830001C2D0D2D3E2C2F2CAE85BF855E96ED9167
:10284000FC915F97812F902FA32DB22D80839183D0
:10285000A283B38389819A81AB81BC81EE85FF8598
:1028600082A793A7A4A7B5A78D819E81AF81B885C4
:1028700082A393A3A4A3B5A381E001C080E02F9617
:102880000FB6F894DEBF0FBECDBFDF91CF911F9181
:102890000F91FF90EF90DF90CF90BF90AF909F90FF
:1028A0008F907F906F905F904F903F902F90089502
:1028B0002F923F924F925F926F927F928F929F9250
:1028C000AF92BF92CF92DF92EF92FF920F931F933E
:1028D000CF93DF93EC016A017B0148015901A90103
:1028E0009801C701B6010E94D92187FF4EC0CAAA2C
:1028F000DBAAECAAFDAA8EAA9FAAA8AEB9AE8AADA1
:10290000882309F442C02E8C3F8CF1014080518015
:1029100062807380A5019401C301B2010E94D92194
:10292000181634F4F10180829182A282B3820DC024
:10293000A7019601C301B2010E947A2087FF05C05A
:10294000F101C082D182E282F3828EA09FA0A8A46E
:10295000B9A4CEA8DFA8E8ACF9ACA7019601C501DF
:10296000B4010E94D921181664F0CAA8DBA8ECA80B
:10297000FDA8A7019601C501B4010E947A2087FF36
:1029800004C0CEA2DFA2E8A6F9A6DF91CF911F91E5
:102990000F91FF90EF90DF90CF90BF90AF909F90FE
:1029A0008F907F906F905F904F903F902F90089501
:1029B0004F925F926F927F928F929F92AF92BF924F
:1029C000CF92DF92EF92FF920F931F93CF93DF93FB
:1029D00000D000D0CDB7DEB74C01270138010B8DF8
:1029E0001C8DDC015F965C934E935E975D967C93A5
:1029F0006E935C9791963C932E939097DA961C92E7
:102A0000FC0112AA13AA14AA15AA80E090E0AFE76D
:102A1000B3E486AB97ABA0AFB1AF84E690E0A0E0A3
:102A2000B0E086A797A7A0ABB1AB118F008F20E0D5
:102A300030E0A901C301B2010E947A2087FD84C061
:102A400020E030E0A901C601B5010E947A2087FD8F
:102A50007BC020E030E0A9016F89788D898D9A8D47
:102A60000E947A2087FD70C081E090E0D4015B96DF
:102A70009C938E935A97DB968C93DB97F40140825C
:102A80005182628273821496AD92BD92CD92DC9295
:102A900017978F89988DA98DBA8D80879187A28786
:102AA000B38744865586668677862DEC3CEC4CECE5
:102AB0005DE3C601B5010E94DE2169837A838B83C1
:102AC0009C83F401608B718B828B938B2DEC3CEC9F
:102AD0004CEC5DE36F89788D898D9A8D0E947F2003
:102AE0006B017C01D40154966D937D938D939C93DF
:102AF00057970130110541F5A301920160E070E0A4
:102B0000CB010E940D20F401648775878687978723
:102B100029813A814B815C8160E070E0CB010E94A9
:102B20000D20D40150966D937D938D939C93539774
:102B3000A701960160E070E0CB010E940D20F40136
:102B4000648B758B868B978B0E945612D4019E9650
:102B50000D911D912D913C91D197DC01CB01801BF2
:102B6000910BA20BB30BF40182A393A3A4A3B5A36F
:102B70000F900F900F900F90DF91CF911F910F91B9
:102B8000FF90EF90DF90CF90BF90AF909F908F908D
:102B90007F906F905F904F9008951F920F920FB6A5
:102BA0000F9211242F933F934F935F936F937F93D3
:102BB0008F939F93AF93BF93EF93FF938091B9004F
:102BC000887F803609F49CC068F5883209F45BC0C0
:102BD00090F4803109F454C038F4882309F4F6C025
:102BE000883009F44DC0F6C0883109F44CC08032F9
:102BF00009F45DC0EFC0803409F468C048F4803344
:102C000009F455C0883309F0E5C080930203D8C0A9
:102C1000803509F44FC0883509F45DC0883409F067
:102C2000D9C0D6C0883909F4C7C0A8F4883709F4D8
:102C300067C038F4883609F463C0803709F460C08F
:102C4000C9C0883809F4B8C0803909F45FC0803839
:102C500009F0C0C05BC0803B09F486C038F4803AFC
:102C600009F466C0883A09F47FC0B4C0803C09F416
:102C7000A7C0883C09F4A4C0883B09F48AC0AAC054
:102C80008091DF0210C0909101038091000398179A
:102C900070F5E091010381E08E0F80930103F0E075
:102CA000E052FD4F80818093BB0085EC86C080930D
:102CB00002038EC0E091010381E08E0F8093010337
:102CC0008091BB00F0E0E052FD4F808390910103C2
:102CD000809100036EC0E091010381E08E0F80932C
:102CE00001038091BB00F0E0E052FD4F80838091B2
:102CF000030381116DC081E08093DE0284EA61C02C
:102D000083E0809304031092A602CFCF8091A602A5
:102D1000803208F051C0E091A60281E08E0F8093CE
:102D2000A6028091BB00F0E0EA57FD4F8083BDCF43
:102D300085EC8093BC00109204038091A60280323F
:102D400030F4E091A602F0E0EA57FD4F1082609166
:102D5000A60270E0E0918402F091850286E892E09C
:102D600009951092A60236C084E080930403109265
:102D7000830210928202E0918002F0918102099513
:102D800080918202811105C081E0809382021092BD
:102D90006002E091830281E08E0F80938302F0E075
:102DA000E05AFD4F80818093BB0090918302809117
:102DB0008202981708F479CF85E88093BC000AC096
:102DC00085EC8093BC001092040304C010920203AF
:102DD0000E94C610FF91EF91BF91AF919F918F918B
:102DE0007F916F915F914F913F912F910F900FBE07
:102DF0000F901F9018951092040381E080930303B5
:102E00001092DE0282E10E94611783E10E94611745
:102E1000E9EBF0E080818E7F808380818D7F8083ED
:102E200088E48093B80085E48093BC0008950F93F4
:102E30001F93CF93DF9300D0CDB7DEB7152F032FAD
:102E4000FC01808191E09093050380932703109209
:102E5000060310922803F4E06F9FB00111246A5F0B
:102E60007F4F89E293E02A8349830E94541149816C
:102E7000842F912F0E945718812F90E00E9457189D
:102E80002A81822F902F0E945718802F90E00E9455
:102E9000571881E00F900F90DF91CF911F910F9104
:102EA0000C94FA17FC0180E1689F90011124838142
:102EB000948140E050E06081CD960C9417170E94F9
:102EC000BC24CF93DF93282F30E0F901ED59FD4F5B
:102ED0008491F901E15BFD4FD491F901E55CFD4F6F
:102EE000C491CC2389F081110E94DF11EC2FF0E016
:102EF000EE0FFF1FEF5CFD4FA591B4918FB7F894D3
:102F0000EC91ED2BEC938FBFDF91CF910895CF9390
:102F1000DF9390E0FC01E15BFD4F2491FC01E55C57
:102F2000FD4F84918823C1F090E0880F991FFC0128
:102F3000E95DFD4FC591D491FC01EF5CFD4FA5917A
:102F4000B4919FB7F8948881E22FE0958E2388830F
:102F50008C91E823EC939FBFDF91CF9108958F92DE
:102F60009F92AF92BF92CF92DF92EF92FF92CF9358
:102F7000DF93EC018AAD811130C0EE8DFF8DC080F2
:102F8000D180E280F380CEA2DFA2E8A6F9A6EC8D84
:102F9000FD8D80819181A281B3818AA79BA7ACA777
:102FA000BDA78EA89FA8A8ACB9ACA5019401C70184
:102FB000B6010E94D921181664F08AA89BA8ACA873
:102FC000BDA8A5019401C701B6010E947A2087FF20
:102FD00004C08EA29FA2A8A6B9A681E08AAFDF9105
:102FE000CF91FF90EF90DF90CF90BF90AF909F90E8
:102FF0008F900895382F2091280390912703213234
:1030000008F049C0809104038111FCCF42E0409355
:103010000403309303033FEF309302031092010344
:1030200020930003A7E0B3E040EE52E0FA013E2F08
:10303000341B321718F43D913193F9CF1092DF020F
:103040002091DF02990F922B9093DF029091DE0284
:10305000913061F41092DE029091DF029093BB00F8
:103060009091BC0093FDF8CF95EC01C095EE909344
:10307000BC00909104039230E1F3909102039F3FD2
:1030800079F080910203803241F080910203803315
:1030900031F084E005C081E003C082E001C083E03C
:1030A0001092060310922803109205030895682FCA
:1030B00089E293E00C945411CF93C62F9091450769
:1030C00021E02093050390932703109206031092AA
:1030D0002803682F89E293E00E9454116C2F89E243
:1030E00093E00E94541181E0CF910C94FA177894E8
:1030F00084B5826084BD84B5816084BD85B58260FD
:1031000085BD85B5816085BD80916E0081608093AD
:103110006E00109281008091810082608093810016
:103120008091810081608093810080918000816026
:10313000809380008091B10084608093B100809181
:10314000B00081608093B00080917A0084608093A9
:103150007A0080917A00826080937A0080917A0070
:10316000816080937A0080917A00806880937A00F1
:103170001092C100C0902A04D0902B04E0902C043F
:10318000F0902D04C0912804D091290460E079E0EA
:103190008DE390E0A70196010E946F22DA01C90138
:1031A0000197A109B109B695A795979587959C01B7
:1031B000E889F98982E08083C11481EED806E104B0
:1031C000F10421F02115A0E13A07A8F0E889F98976
:1031D000108260E874E88EE190E0A70196010E94F9
:1031E0006F22DA01C9010197A109B109B695A79526
:1031F000979587959C01EC85FD853083EE85FF854D
:103200002083188EEC89FD8986E08083EA89FB891A
:10321000808180618083EA89FB89808188608083E6
:10322000EA89FB89808180688083EA89FB898081C3
:103230008F7D80831092CF061092CE061092D10619
:103240001092D0061092D5061092D4061092D30692
:103250001092D20680E091EEA0E0B0E080932A04C4
:1032600090932B04A0932C04B0932D04ECE9F6E08A
:1032700080E090E021913191232B81F4FC01EE0F4D
:10328000FF1FE456F94F2DEF33E0318320838C5933
:103290009F4F909300048093FF0304C001968931EF
:1032A000910541F7EAE6F6E080E090E02191319166
:1032B000232BB1F4FC01EE0FFF1FE659F94F22ED6D
:1032C00033E03183208383589F4F9093D8038093BA
:1032D000D70386E294E09093DA038093D90304C085
:1032E00001968931910511F789E293E090930907DE
:1032F000809308071092D1021092D0021092060318
:10330000109228030E94FB161092060310922803C5
:103310000E94FB1660E080E00E945C1880E496E06A
:1033200090930C0780930B078091450791E0909351
:10333000050380932703109206031092280360E090
:1033400089E293E00E94541181E00E94FA17809173
:103350004507909104039111FCCF91E090930403F1
:10336000909303032FEF2093020310920103109216
:1033700000039093DF029091DF02880F892B8093E6
:10338000DF028091DE02813061F41092DE028091D2
:10339000DF028093BB008091BC0083FDF8CF85ECF9
:1033A00001C085EE8093BC00809104038130E1F37D
:1033B00080910103811103C08091010301C081E06C
:1033C000A0EEB2E020EB32E0F9019E2F921B98179D
:1033D00018F49D919193F9CF1092D1028093D0026D
:1033E00089E293E00E940811C82F682F6F76606110
:1033F00080E00E945C1863E08EEF0E945C186C2FE6
:1034000080E00E945C180E9431124B015C01E5E0F3
:10341000CE2ED12CE12CF12C0E943112DC01CB01FB
:1034200088199909AA09BB09883E9340A105B105ED
:1034300058F0B1E0CB1AD108E108F10828EE820E6D
:1034400023E0921EA11CB11CC114D104E104F104BB
:1034500019F76C2F616A80E00E945C18C0E020E0E0
:1034600030E040E050E06C2F85E497E00E941717B1
:10347000CF5FC031A1F760E0809106079091070708
:103480000E94521763E080910607909107070E94FF
:10349000F80A60E080910407909105070E94521796
:1034A00063E080910407909105070E94F80A6091FB
:1034B000C8077091C9078091CA079091CB070E94F5
:1034C00027219B01AC0160E070E088E492E40E9457
:1034D0007F206B017C019B01AC016091AA07709178
:1034E000AB078091AC079091AD070E94DE216093FD
:1034F000AA077093AB078093AC079093AD07A70121
:1035000096016091AE077091AF078091B0079091DE
:10351000B1070E947F206093AE077093AF0780933E
:10352000B0079093B10762E3C62ED12CE12CF12CA9
:10353000C092C807D092C907E092CA07F092CB07A1
:103540006091800770918107809182079091830735
:103550000E9427219B01AC0160E070E088E492E4C6
:103560000E947F204B015C019B01AC0160916207CE
:103570007091630780916407909165070E94DE2136
:103580006093620770936307809364079093650765
:10359000A5019401609166077091670780916807A3
:1035A000909169070E947F20609366077093670778
:1035B0008093680790936907C0928007D092810733
:1035C000E0928207F092830700E010E020E830E408
:1035D00040E050E060E870EC8AE997E00E945814FF
:1035E00000E010E020E830E440E050E060E870ECFB
:1035F00082E597E00E9458148AE997E00E94AF178D
:1036000082E597E00E94AF1782E00E94871784E06E
:103610000E94871782E00E94611784E00E94611770
:1036200080E497E09093010180930001809169000C
:10363000836080936900E89A83E00E94871785E0A1
:103640000E94871783E00E94611785E00E9461173E
:1036500082E297E0909303018093020180916900D8
:103660008C6080936900E99A7DEC872E7CEC972E24
:10367000A92C7DE3B72E0EED13E086E294E00E94C4
:10368000F90B4FE152E061E086E294E00E94520BB8
:103690000E945612C090DA02D090DB02E090DC0269
:1036A000F090DD02DC01CB018C199D09AE09BF0948
:1036B00084369105A105B10508F493C20E94561203
:1036C0006093DA027093DB028093DC029093DD0258
:1036D0008091D4029091D502181619062CF480918D
:1036E000D4029091D50207C08091D4029091D50266
:1036F00091958195910905974CF410929607109237
:103700009707109298071092990729C08091D402C8
:103710009091D502B8010E945B22660F771F072E99
:10372000000C880B990B0E9429212BED3FE049E406
:1037300050E40E94DE2120E030E040E251E40E94AB
:10374000DE212AE037ED43E25DE30E94DE21609353
:1037500096077093970780939807909399078091A5
:10376000D2029091D302181619062CF48091D2023D
:103770009091D30207C08091D2029091D30291958B
:103780008195910905974CF410924E0710924F07BE
:10379000109250071092510729C08091D202909147
:1037A000D302B8010E945B22660F771F072E000C20
:1037B000880B990B0E9429212BED3FE049E450E44E
:1037C0000E94DE2120E030E040E251E40E94DE2150
:1037D0002AE037ED43E25DE30E94DE2160934E076D
:1037E00070934F0780935007909351071092D50222
:1037F0001092D4021092D3021092D2028091D40778
:10380000882321F08AE997E00E94FA12C09092077B
:10381000D0909307E0909407F090950720E030E077
:1038200040E850ECC701B6010E947A2087FD11C024
:1038300020E030E040E850E4C701B6010E94D92101
:1038400018166CF4C12CD12C20E8E22E20E4F22EC4
:1038500006C0C12CD12C30E8E32E30ECF32EC09200
:103860009207D0929307E0929407F09295076091A7
:10387000D8027091D902072E000C880B990B0E9478
:1038800029212B013C01A7019601C701B6010E9425
:103890000E2020E030E04FE753E40E94DE219B0140
:1038A000AC01C301B2010E940E206B017C0120E03B
:1038B00030E04FE753EC0E947A2087FD10C020E0F3
:1038C00030E04FE753E4C701B6010E94D921181632
:1038D0004CF0C701B6010E94F120EB0105C0C1E028
:1038E000DFEF02C0CFEFD0E0D093D902C093D8026F
:1038F00020E030E0A90160918E0770918F078091E0
:103900009007909191070E947A20209106073091AC
:103910000707811106C060E0C9010E94521763E0E9
:103920000BC06C2FC901D7FF04C00E94521761E081
:1039300003C00E94521762E080910607909107072A
:103940000E94F80A80918C07882321F082E597E095
:103950000E94FA12C0904A07D0904B07E0904C07A3
:10396000F0904D0720E030E040E850ECC701B60190
:103970000E947A2087FD11C020E030E040E850E44A
:10398000C701B6010E94D92118166CF4C12CD12CA4
:1039900080E8E82E80E4F82E06C0C12CD12C90E8F7
:1039A000E92E90ECF92EC0924A07D0924B07E09294
:1039B0004C07F0924D076091D6027091D702072E06
:1039C000000C880B990B0E9429212B013C01A701B7
:1039D0009601C701B6010E940E2020E030E04FE7BB
:1039E00053E40E94DE219B01AC01C301B2010E949D
:1039F0000E206B017C0120E030E04FE753EC0E9489
:103A00007A2087FD10C020E030E04FE753E4C70183
:103A1000B6010E94D92118164CF0C701B6010E94C8
:103A2000F120EB0105C0C1E0DFEF02C0CFEFD0E035
:103A3000D093D702C093D60220E030E0A901609174
:103A400046077091470780914807909149070E9467
:103A50007A202091040730910507811106C060E0AB
:103A6000C9010E94521763E00BC06C2FC901D7FF38
:103A700004C00E94521762E003C00E94521761E026
:103A800080910407909105070E94F80A0E9456123F
:103A9000C090DA02D090DB02E090DC02F090DD0210
:103AA000DC01CB018C199D09AE09BF098436910553
:103AB000A105B10580F04AE050E067E272E085E3DD
:103AC00093E00E94BF0F42E050E062E372E085E3C2
:103AD00093E00E94BF0F0E94561228EE33E040E0B0
:103AE00050E00E946F22C0903204D0903304E090E6
:103AF0003404F0903504C20ED31EE41EF51E9B0163
:103B0000AC0160E472E48FE090E00E944B224090B0
:103B10003604509037046090380470903904640D76
:103B2000751D861D971D20E03AEC4AE95BE30E9473
:103B30006F22C20ED31EE41EF51EC092E503D09282
:103B4000E603E092E703F092E8036093E9037093E1
:103B5000EA038093EB039093EC0380919607909196
:103B60009707A0919807B09199078093F1039093DC
:103B7000F203A093F303B093F40380914E07909166
:103B80004F07A0915007B09151078093F503909390
:103B9000F603A093F703B093F8038092F903909291
:103BA000FA03A092FB03B092FC038091D903909199
:103BB000DA03DC01ED91FC916091D7037091D80399
:103BC0000190F081E02D4DED53E0099586E294E0FF
:103BD0000E94F90B45E352E061E086E294E00E9426
:103BE000520B0E94BB1049CD8F929F92AF92BF9211
:103BF000CF92DF92EF92FF920F931F93CF93DF93B9
:103C0000109238031092370388EE93E0A0E0B0E002
:103C10008093390390933A03A0933B03B0933C0302
:103C200020E431E0309336032093350325EC30E077
:103C3000309342032093410324EC30E0309344035B
:103C40002093430320EC30E0309346032093450358
:103C500021EC30E0309348032093470322EC30E01E
:103C600030934A032093490326EC30E030934C0311
:103C700020934B0310924E0310924F031092500367
:103C80001092510310922C0310922B0380932D035A
:103C900090932E03A0932F03B093300382E591E01D
:103CA00090932A03809329031F921F928DE3882EFD
:103CB0008F9291E6992E9F92D7E4DF93CEEACF932D
:103CC0002CEEA22E21E5B22E28E3C22E2EE3D22E18
:103CD0001FE8E12E12ECF12E05EF1DE32EE837E090
:103CE00042E957E066E977E08AE997E00E94D81454
:103CF0001F921F928F929F92DF93CF9326E437E01B
:103D00004AE457E06EE477E082E597E00E94D81439
:103D1000EFE0F7E08DB79EB70C960FB6F8949EBF14
:103D20000FBE8DBF1282118213821082DF011197A4
:103D30001C9211971C92369697E0E732F90791F79B
:103D400010923107109234071092300710922F070B
:103D500010924107109244071092400710923F07BB
:103D600080E680930A0780934507809112078111AE
:103D700011C01092120788E097E09093110780938A
:103D8000100788E080930D078AE080930E0789E092
:103D900080930F078DE097E09093070780930607C5
:103DA00080911807811112C081E08093180788E084
:103DB00097E090931707809316078DE08093130781
:103DC0008BE0809314078CE08093150783E197E0E4
:103DD00090930507809304078CEA91E09093270461
:103DE0008093260485E393E090932904809328042C
:103DF00080E091EEA0E0B0E080932A0490932B0441
:103E0000A0932C04B0932D041092D80684E991E07D
:103E10009093E7068093E6061092E8061092E90672
:103E20001092EA061092EB061092F1061092F0063C
:103E30001092F2061092F3061092F4061092F50614
:103E40001092FB061092FA061092FC061092FD06E4
:103E50001092FE061092FF061092030710920207BE
:103E6000EAE6F6E01192119286E0EC39F807D1F714
:103E7000ECE9F6E01192119296E0EE3CF907D1F7E9
:103E8000EAE3F4E0119285E0E235F807D9F7E2E5DC
:103E9000F5E0119296E0EA36F907D9F786EB91E062
:103EA0009093FE038093FD0388E891E090930504CE
:103EB000809304048CE791E09093070480930604B8
:103EC000109208041092090410920A0410920B0434
:103ED00010920C0410920D0410920E0410920F0414
:103EE00010921004109211041092120410921304F4
:103EF00090931504809314041092160410921704E2
:103F0000109218041092190410921A0410921B04B3
:103F100010921C0410921D0410921E0410921F0493
:103F2000109220041092210421EC31E030932304FC
:103F30002093220421E030E03093250420932404D0
:103F400029E432E030930204209301041092030428
:103F500020E731E03093DE032093DD0324E631E0F7
:103F60003093E0032093DF031092E1031092E20309
:103F70001092E3031092E4031092E5031092E6031B
:103F80001092E7031092E8031092E9031092EA03FB
:103F90001092EB031092EC0324E332E03093EE0333
:103FA0002093ED039093F0038093EF031092F103BD
:103FB0001092F2031092F3031092F4031092F5039F
:103FC0001092F6031092F7031092F8031092F9037F
:103FD0001092FA031092FB031092FC0381E592E029
:103FE0009093D3038093D2031092D4038DED93E08A
:103FF0009093D6038093D5031092DC031092DB03D9
:10400000DF91CF911F910F91FF90EF90DF90CF90B4
:10401000BF90AF909F908F9008955058BB27AA27CC
:104020000E9425200C949F210E94912138F00E942B
:10403000982120F039F49F3F19F426F40C948E2136
:104040000EF4E095E7FB0C948821E92F0E94B02143
:1040500058F3BA17620773078407950720F079F4BD
:10406000A6F50C94D2210EF4E0950B2EBA2FA02DBC
:104070000B01B90190010C01CA01A0011124FF2715
:10408000591B99F0593F50F4503E68F11A16F04010
:10409000A22F232F342F4427585FF3CF469537950F
:1040A0002795A795F0405395C9F77EF41F16BA0BD4
:1040B000620B730B840BBAF09150A1F0FF0FBB1F82
:1040C000661F771F881FC2F70EC0BA0F621F731FCB
:1040D000841F48F4879577956795B795F7959E3F28
:1040E00008F0B0CF9395880F08F09927EE0F9795B9
:1040F000879508950E94642108F481E008950E9444
:1041000093200C949F210E94982158F00E949121A5
:1041100040F029F45F3F29F00C94882151110C9450
:10412000D3210C948E210E94B02168F39923B1F31E
:10413000552391F3951B550BBB27AA2762177307CD
:10414000840738F09F5F5F4F220F331F441FAA1F61
:10415000A9F335D00E2E3AF0E0E832D0915050401D
:10416000E695001CCAF72BD0FE2F29D0660F771FCB
:10417000881FBB1F261737074807AB07B0E809F0B1
:10418000BB0B802DBF01FF2793585F4F3AF09E3F36
:10419000510578F00C9488210C94D3215F3FE4F30F
:1041A000983ED4F3869577956795B795F7959F5F79
:1041B000C9F7880F911D9695879597F90895E1E0C5
:1041C000660F771F881FBB1F621773078407BA0724
:1041D00020F0621B730B840BBA0BEE1F88F7E0957F
:1041E00008950E94F8206894B1110C94D321089589
:1041F0000E94B82188F09F5798F0B92F9927B7519E
:10420000B0F0E1F0660F771F881F991F1AF0BA957A
:10421000C9F714C0B13091F00E94D221B1E00895E5
:104220000C94D221672F782F8827B85F39F0B93FD7
:10423000CCF3869577956795B395D9F73EF490952D
:104240008095709561957F4F8F4F9F4F0895E894AB
:1042500009C097FB3EF490958095709561957F4FCE
:104260008F4F9F4F9923A9F0F92F96E9BB2793957C
:10427000F695879577956795B795F111F8CFFAF48C
:10428000BB0F11F460FF1BC06F5F7F4F8F4F9F4FBD
:1042900016C0882311F096E911C0772321F09EE81B
:1042A000872F762F05C0662371F096E8862F70E081
:1042B00060E02AF09A95660F771F881FDAF7880F5B
:1042C0009695879597F90895990F0008550FAA0BB1
:1042D000E0E8FEEF16161706E807F907C0F0121619
:1042E0001306E407F50798F0621B730B840B950B1C
:1042F00039F40A2661F0232B242B252B21F4089571
:104300000A2609F4A140A6958FEF811D811D08950D
:1043100097F99F6780E870E060E008959FEF80EC78
:10432000089500240A94161617061806090608951B
:1043300000240A9412161306140605060895092E81
:104340000394000C11F4882352F0BB0F40F4BF2BF0
:1043500011F460FF04C06F5F7F4F8F4F9F4F089530
:1043600057FD9058440F551F59F05F3F71F0479526
:10437000880F97FB991F61F09F3F79F0879508950B
:10438000121613061406551FF2CF4695F1DF08C02A
:10439000161617061806991FF1CF86957105610547
:1043A00008940895E894BB2766277727CB0197F9EF
:1043B00008950E94642108F48FEF08950E94F1216E
:1043C0000C949F210E94912138F00E94982120F0A6
:1043D000952311F00C9488210C948E2111240C94B7
:1043E000D3210E94B02170F3959FC1F3950F50E047
:1043F000551F629FF001729FBB27F00DB11D639F97
:10440000AA27F00DB11DAA1F649F6627B00DA11D3C
:10441000661F829F2227B00DA11D621F739FB00DE2
:10442000A11D621F839FA00D611D221F749F332752
:10443000A00D611D231F849F600D211D822F762FEB
:104440006A2F11249F5750409AF0F1F088234AF0C8
:10445000EE0FFF1FBB1F661F771F881F9150504034
:10446000A9F79E3F510580F00C9488210C94D3212C
:104470005F3FE4F3983ED4F3869577956795B795BB
:10448000F795E7959F5FC1F7FE2B880F911D9695D5
:10449000879597F90895DB018F939F930E9491224E
:1044A000BF91AF91A29F800D911DA39F900DB29FD0
:1044B000900D1124089597FB072E16F4009407D051
:1044C00077FD09D00E949C2207FC05D03EF4909510
:1044D00081959F4F0895709561957F4F0895A1E252
:1044E0001A2EAA1BBB1BFD010DC0AA1FBB1FEE1F6E
:1044F000FF1FA217B307E407F50720F0A21BB30BB9
:10450000E40BF50B661F771F881F991F1A9469F734
:1045100060957095809590959B01AC01BD01CF0190
:1045200008950E94B622A59F900DB49F900DA49F60
:10453000800D911D11240895AA1BBB1B51E107C0DA
:10454000AA1FBB1FA617B70710F0A61BB70B881F23
:10455000991F5A95A9F780959095BC01CD010895B2
:10456000EE0FFF1F0590F491E02D0994A29FB0017A
:10457000B39FC001A39F700D811D1124911DB29F97
:10458000700D811D1124911D0895CF93DF9382300A
:10459000910510F482E090E0E091D807F091D907FE
:1045A00020E030E0C0E0D0E0309711F1408151814F
:1045B00048175907C0F04817590761F48281938161
:1045C000209719F09B838A832BC09093D9078093FF
:1045D000D80726C02115310519F04217530718F4E2
:1045E0009A01BE01DF01EF010280F381E02DDCCFF3
:1045F0002115310509F1281B390B2430310590F4C0
:1046000012968D919C9113976115710521F0FB0114
:104610009383828304C09093D9078093D807FD01C8
:10462000329644C0FD01E20FF31F81939193225013
:1046300031092D933C933AC02091D6073091D7078A
:10464000232B41F420910601309107013093D707C5
:104650002093D607209104013091050121153105E1
:1046600041F42DB73EB74091080150910901241B38
:10467000350BE091D607F091D707E217F307A0F4C6
:104680002E1B3F0B2817390778F0AC014E5F5F4FA8
:104690002417350748F04E0F5F1F5093D7074093FC
:1046A000D6078193919302C0E0E0F0E0CF01DF9163
:1046B000CF9108950F931F93CF93DF93009709F441
:1046C0008CC0FC013297138212820091D80710919E
:1046D000D9070115110581F420813181820F931FC3
:1046E0002091D6073091D7072817390779F5F0932D
:1046F000D707E093D60771C0D80140E050E0AE176D
:10470000BF0750F412962D913C911397AD012115DE
:10471000310509F1D901F3CF9D01DA0133832283F9
:1047200060817181860F971F8217930769F4EC01EE
:1047300028813981260F371F2E5F3F4F3183208319
:104740008A819B8193838283452B29F4F093D90737
:10475000E093D80742C01396FC93EE931297ED01B5
:10476000499159919E01240F351FE217F30771F407
:1047700080819181840F951F029611969C938E9350
:104780008281938113969C938E931297E0E0F0E0E0
:10479000D80112968D919C911397009719F0F8010A
:1047A0008C01F6CF8D919C9198012E5F3F4F820F27
:1047B000931F2091D6073091D7072817390769F43E
:1047C000309729F41092D9071092D80702C01382AB
:1047D00012821093D7070093D607DF91CF911F91D4
:1047E0000F910895A0E0B0E0E8EFF3E20C94CE243E
:1047F000EC01009721F4CB010E94C522B8C0FC0156
:10480000E60FF71F9C0122503109E217F30708F465
:10481000ACC0D9010D911C91119706171707B0F084
:104820000530110508F49FC0C80104978617970743
:1048300008F499C002501109061B170B019311933C
:104840006D937C93CF010E945A238DC05B01A01A07
:10485000B10A4C01800E911EA091D807B091D907E2
:1048600040E050E0E12CF12C109709F44AC0A81563
:10487000B905D1F56D907C901197630182E0C80E67
:10488000D11CCA14DB0480F1A3014A195B096A0137
:1048900082E0C80ED11C1296BC9012971396AC9170
:1048A000B5E0CB16D10440F0B282A383518340839C
:1048B000D9016D937C930AC00E5F1F4FC301800F17
:1048C000911FF90191838083EB2DFA2FE114F104FC
:1048D00031F0D7011396FC93EE93129744C0F093F6
:1048E000D907E093D8073FC08D919C911197481745
:1048F000590708F4AC017D0112960D90BC91A02DD2
:10490000B3CF8091D6079091D70788159905E1F428
:1049100046175707C8F4809104019091050100974C
:1049200041F48DB79EB74091080150910901841B55
:10493000950BE817F907C8F4F093D707E093D6076B
:10494000F901718360830FC0CB010E94C5227C01F5
:10495000009759F0A801BE010E94C124CE010E9417
:104960005A23C70104C0CE0102C080E090E0CDB759
:10497000DEB7EEE00C94EA2481E090E0F8940C9429
:104980000125FB01DC0102C001900D924150504015
:10499000D8F708952F923F924F925F926F927F9235
:1049A0008F929F92AF92BF92CF92DF92EF92FF923F
:1049B0000F931F93CF93DF93CDB7DEB7CA1BDB0BEB
:1049C0000FB6F894DEBF0FBECDBF09942A88398890
:1049D00048885F846E847D848C849B84AA84B98497
:1049E000C884DF80EE80FD800C811B81AA81B981A3
:1049F000CE0FD11D0FB6F894DEBF0FBECDBFED01B7
:064A00000895F894FFCFB9
:104A0600C510C5100000DA07800000000000000095
:104A1600B508A403A1039E0300000000260336097F
:104A26003F09240300000000E0049A04970494045C
:104A3600000000008908460343034003000000000D
:104A46005210BF0FEA0F99101B10F90F0D1000003E
:104A56000000541124118411F8101C110811F910CA
:104A6600000000005E072702240221020000000069
:104A7600A107030618021502000000009E06A805FD
:104A86001E021B0200000000CE06D20512020F0213
:104A960000000000BD0749093D033A03000000007D
:104AA6005F175F175F175F1700000000740BF90BA5
:104AB600670100000000EE0572016F016C014D6593
:104AC60073736167652066726F6D206465766963CE
:104AD600652064726F707065643A206D65737361EA
:104AE6006765206C6172676572207468616E20620A
:104AF60075666665722E00466C6173682072656124
:104B060064206E6F7420696D706C00427566666510
:104B160072206F766572666C6F7720707562006DB5
:104B26006573736167650020544F4F204C4F4E47A5
:104B360020000D0A005075626C697368696E672003
:104B46006F646F6D6574727900636D645F76656C12
:084B5600007370656564000046
:00000001FF
